{
  "contractName": "Curator",
  "abi": [
    {
      "constant": true,
      "inputs": [],
      "name": "genreScore",
      "outputs": [
        {
          "name": "",
          "type": "int256"
        }
      ],
      "payable": false,
      "stateMutability": "view",
      "type": "function"
    },
    {
      "constant": true,
      "inputs": [],
      "name": "totalTracks",
      "outputs": [
        {
          "name": "",
          "type": "uint256"
        }
      ],
      "payable": false,
      "stateMutability": "view",
      "type": "function"
    },
    {
      "constant": true,
      "inputs": [
        {
          "name": "",
          "type": "uint256"
        }
      ],
      "name": "allTracks",
      "outputs": [
        {
          "name": "",
          "type": "bytes32"
        }
      ],
      "payable": false,
      "stateMutability": "view",
      "type": "function"
    },
    {
      "constant": true,
      "inputs": [
        {
          "name": "",
          "type": "bytes32"
        }
      ],
      "name": "musicMapTracks",
      "outputs": [
        {
          "name": "hash",
          "type": "bytes32"
        },
        {
          "name": "score",
          "type": "int256"
        },
        {
          "name": "state",
          "type": "uint8"
        }
      ],
      "payable": false,
      "stateMutability": "view",
      "type": "function"
    },
    {
      "constant": true,
      "inputs": [
        {
          "name": "",
          "type": "uint256"
        }
      ],
      "name": "allUsers",
      "outputs": [
        {
          "name": "",
          "type": "address"
        }
      ],
      "payable": false,
      "stateMutability": "view",
      "type": "function"
    },
    {
      "constant": true,
      "inputs": [],
      "name": "averageScore",
      "outputs": [
        {
          "name": "",
          "type": "int256"
        }
      ],
      "payable": false,
      "stateMutability": "view",
      "type": "function"
    },
    {
      "constant": true,
      "inputs": [
        {
          "name": "",
          "type": "address"
        }
      ],
      "name": "musicMapUsers",
      "outputs": [
        {
          "name": "id",
          "type": "address"
        },
        {
          "name": "vouchCredits",
          "type": "int256"
        },
        {
          "name": "rejectCredits",
          "type": "int256"
        },
        {
          "name": "dayVoteCount",
          "type": "uint256"
        }
      ],
      "payable": false,
      "stateMutability": "view",
      "type": "function"
    },
    {
      "constant": false,
      "inputs": [
        {
          "name": "trackHashString",
          "type": "string"
        },
        {
          "name": "didVouch",
          "type": "bool"
        }
      ],
      "name": "vouchOrReject",
      "outputs": [
        {
          "name": "",
          "type": "bool"
        }
      ],
      "payable": false,
      "stateMutability": "nonpayable",
      "type": "function"
    },
    {
      "constant": true,
      "inputs": [
        {
          "name": "trackHash",
          "type": "bytes32"
        }
      ],
      "name": "_isRejected",
      "outputs": [
        {
          "name": "",
          "type": "bool"
        }
      ],
      "payable": false,
      "stateMutability": "view",
      "type": "function"
    },
    {
      "constant": false,
      "inputs": [],
      "name": "resetVoteCount",
      "outputs": [
        {
          "name": "",
          "type": "bool"
        }
      ],
      "payable": false,
      "stateMutability": "nonpayable",
      "type": "function"
    }
  ],
  "bytecode": "0x608060405234801561001057600080fd5b50611a77806100206000396000f3fe6080604052600436106100a4576000357c0100000000000000000000000000000000000000000000000000000000900463ffffffff168063039d6019146100a957806305c83a1a146100d857806340dee0b5146101035780634e35e5d71461012e5780636158caa01461021a57806388076c6314610269578063a2bdedf4146102d4578063cb2060ec1461034f578063cedb97b6146103a2578063e1c674d7146103cd575b600080fd5b3480156100b557600080fd5b506100be610473565b604051808215151515815260200191505060405180910390f35b3480156100e457600080fd5b506100ed6105a4565b6040518082815260200191505060405180910390f35b34801561010f57600080fd5b506101186105aa565b6040518082815260200191505060405180910390f35b34801561013a57600080fd5b506102006004803603604081101561015157600080fd5b810190808035906020019064010000000081111561016e57600080fd5b82018360208201111561018057600080fd5b803590602001918460018302840111640100000000831117156101a257600080fd5b91908080601f016020809104026020016040519081016040528093929190818152602001838380828437600081840152601f19601f8201169050808301925050505050505091929192908035151590602001909291905050506105b0565b604051808215151515815260200191505060405180910390f35b34801561022657600080fd5b506102536004803603602081101561023d57600080fd5b8101908080359060200190929190505050610629565b6040518082815260200191505060405180910390f35b34801561027557600080fd5b506102a26004803603602081101561028c57600080fd5b810190808035906020019092919050505061064c565b604051808481526020018381526020018260038111156102be57fe5b60ff168152602001935050505060405180910390f35b3480156102e057600080fd5b5061030d600480360360208110156102f757600080fd5b8101908080359060200190929190505050610683565b604051808273ffffffffffffffffffffffffffffffffffffffff1673ffffffffffffffffffffffffffffffffffffffff16815260200191505060405180910390f35b34801561035b57600080fd5b506103886004803603602081101561037257600080fd5b81019080803590602001909291905050506106c1565b604051808215151515815260200191505060405180910390f35b3480156103ae57600080fd5b506103b7610718565b6040518082815260200191505060405180910390f35b3480156103d957600080fd5b5061041c600480360360208110156103f057600080fd5b81019080803573ffffffffffffffffffffffffffffffffffffffff16906020019092919050505061071e565b604051808573ffffffffffffffffffffffffffffffffffffffff1673ffffffffffffffffffffffffffffffffffffffff16815260200184815260200183815260200182815260200194505050505060405180910390f35b600080600090505b60058054905081101561059c5760006003600060058481548110151561049d57fe5b9060005260206000200160009054906101000a900473ffffffffffffffffffffffffffffffffffffffff1673ffffffffffffffffffffffffffffffffffffffff1673ffffffffffffffffffffffffffffffffffffffff1681526020019081526020016000206005015414151561058f5760006003600060058481548110151561052257fe5b9060005260206000200160009054906101000a900473ffffffffffffffffffffffffffffffffffffffff1673ffffffffffffffffffffffffffffffffffffffff1673ffffffffffffffffffffffffffffffffffffffff168152602001908152602001600020600501819055505b808060010191505061047b565b506001905090565b60005481565b60015481565b60008060208401519050600033905060006105cb838361076e565b9050801580156105e157506105df82610830565b155b1561061b57600015156105f3846106c1565b1515141561061a57610606838684610893565b61060e6111ba565b60019350505050610623565b5b600093505050505b92915050565b60068181548110151561063857fe5b906000526020600020016000915090505481565b60046020528060005260406000206000915090508060000154908060010154908060030160009054906101000a900460ff16905083565b60058181548110151561069257fe5b906000526020600020016000915054906101000a900473ffffffffffffffffffffffffffffffffffffffff1681565b6000600160038111156106d057fe5b6004600084815260200190815260200160002060030160009054906101000a900460ff1660038111156106ff57fe5b141561070e5760019050610713565b600090505b919050565b60025481565b60036020528060005260406000206000915090508060000160009054906101000a900473ffffffffffffffffffffffffffffffffffffffff16908060010154908060020154908060050154905084565b600080600360008473ffffffffffffffffffffffffffffffffffffffff1673ffffffffffffffffffffffffffffffffffffffff1681526020019081526020016000209050600081600301600086815260200190815260200160002060009054906101000a900460ff169050600160028111156107e657fe5b8160028111156107f257fe5b1480610813575060028081111561080557fe5b81600281111561081157fe5b145b156108235760019250505061082a565b6000925050505b92915050565b6000600a60ff16600360008473ffffffffffffffffffffffffffffffffffffffff1673ffffffffffffffffffffffffffffffffffffffff168152602001908152602001600020600501541415610889576001905061088e565b600090505b919050565b8115610b4f5760008090505b6005805490508110156109fc57600160028111156108b957fe5b6004600086815260200190815260200160002060020160006005848154811015156108e057fe5b9060005260206000200160009054906101000a900473ffffffffffffffffffffffffffffffffffffffff1673ffffffffffffffffffffffffffffffffffffffff1673ffffffffffffffffffffffffffffffffffffffff16815260200190815260200160002060009054906101000a900460ff16600281111561095e57fe5b14156109ef5760016003600060058481548110151561097957fe5b9060005260206000200160009054906101000a900473ffffffffffffffffffffffffffffffffffffffff1673ffffffffffffffffffffffffffffffffffffffff1673ffffffffffffffffffffffffffffffffffffffff168152602001908152602001600020600101600082825401925050819055505b808060010191505061089f565b506001600360008373ffffffffffffffffffffffffffffffffffffffff1673ffffffffffffffffffffffffffffffffffffffff168152602001908152602001600020600301600085815260200190815260200160002060006101000a81548160ff02191690836002811115610a6d57fe5b021790555060016004600085815260200190815260200160002060020160008373ffffffffffffffffffffffffffffffffffffffff1673ffffffffffffffffffffffffffffffffffffffff16815260200190815260200160002060006101000a81548160ff02191690836002811115610ae257fe5b021790555060001515610b0b6004600086815260200190815260200160002060000154856111d2565b1515141515610b3a57600160046000858152602001908152602001600020600101600082825401925050819055505b60016000808282540192505081905550610e00565b60008090505b600580549050811015610cb157600280811115610b6e57fe5b600460008681526020019081526020016000206002016000600584815481101515610b9557fe5b9060005260206000200160009054906101000a900473ffffffffffffffffffffffffffffffffffffffff1673ffffffffffffffffffffffffffffffffffffffff1673ffffffffffffffffffffffffffffffffffffffff16815260200190815260200160002060009054906101000a900460ff166002811115610c1357fe5b1415610ca457600160036000600584815481101515610c2e57fe5b9060005260206000200160009054906101000a900473ffffffffffffffffffffffffffffffffffffffff1673ffffffffffffffffffffffffffffffffffffffff1673ffffffffffffffffffffffffffffffffffffffff168152602001908152602001600020600201600082825401925050819055505b8080600101915050610b55565b506002600360008373ffffffffffffffffffffffffffffffffffffffff1673ffffffffffffffffffffffffffffffffffffffff168152602001908152602001600020600301600085815260200190815260200160002060006101000a81548160ff02191690836002811115610d2257fe5b021790555060026004600085815260200190815260200160002060020160008373ffffffffffffffffffffffffffffffffffffffff1673ffffffffffffffffffffffffffffffffffffffff16815260200190815260200160002060006101000a81548160ff02191690836002811115610d9757fe5b021790555060001515610dc06004600086815260200190815260200160002060000154856111d2565b1515141515610def57600160046000858152602001908152602001600020600101600082825403925050819055505b600160008082825403925050819055505b60001515610e246004600086815260200190815260200160002060000154856111d2565b15151415610ebc5782600460008581526020019081526020016000206000018190555060068390806001815401808255809150509060018203906000526020600020016000909192909190915055506001806000828254019250508190555060026004600085815260200190815260200160002060030160006101000a81548160ff02191690836003811115610eb657fe5b02179055505b8073ffffffffffffffffffffffffffffffffffffffff16600360008373ffffffffffffffffffffffffffffffffffffffff1673ffffffffffffffffffffffffffffffffffffffff16815260200190815260200160002060000160009054906101000a900473ffffffffffffffffffffffffffffffffffffffff1673ffffffffffffffffffffffffffffffffffffffff1614151561103b5780600360008373ffffffffffffffffffffffffffffffffffffffff1673ffffffffffffffffffffffffffffffffffffffff16815260200190815260200160002060000160006101000a81548173ffffffffffffffffffffffffffffffffffffffff021916908373ffffffffffffffffffffffffffffffffffffffff16021790555060058190806001815401808255809150509060018203906000526020600020016000909192909190916101000a81548173ffffffffffffffffffffffffffffffffffffffff021916908373ffffffffffffffffffffffffffffffffffffffff160217905550505b6001600360008373ffffffffffffffffffffffffffffffffffffffff1673ffffffffffffffffffffffffffffffffffffffff16815260200190815260200160002060050160008282540192505081905550600a60ff16600460008581526020019081526020016000206001015413156110f45760036004600085815260200190815260200160002060030160006101000a81548160ff021916908360038111156110e157fe5b02179055506110ef8361123c565b6111b5565b7fffffffffffffffffffffffffffffffffffffffffffffffffffffffffffffff9c60010b6004600085815260200190815260200160002060010154121561117b5760016004600085815260200190815260200160002060030160006101000a81548160ff0219169083600381111561116857fe5b02179055506111768361123c565b6111b4565b60026004600085815260200190815260200160002060030160006101000a81548160ff021916908360038111156111ae57fe5b02179055505b5b505050565b6001546000548115156111c957fe5b05600281905550565b600081604051602001808281526020019150506040516020818303038152906040528051906020012083604051602001808281526020019150506040516020818303038152906040528051906020012014156112315760019050611236565b600090505b92915050565b60038081111561124857fe5b6004600083815260200190815260200160002060030160009054906101000a900460ff16600381111561127757fe5b14156115c35760008090505b6005805490508110156115bd5760028081111561129c57fe5b6004600084815260200190815260200160002060020160006005848154811015156112c357fe5b9060005260206000200160009054906101000a900473ffffffffffffffffffffffffffffffffffffffff1673ffffffffffffffffffffffffffffffffffffffff1673ffffffffffffffffffffffffffffffffffffffff16815260200190815260200160002060009054906101000a900460ff16600281111561134157fe5b1480156113ec5750600115156003600060058481548110151561136057fe5b9060005260206000200160009054906101000a900473ffffffffffffffffffffffffffffffffffffffff1673ffffffffffffffffffffffffffffffffffffffff1673ffffffffffffffffffffffffffffffffffffffff168152602001908152602001600020600401600084815260200190815260200160002060009054906101000a900460ff16151514155b156115b057600a60ff166004600084815260200190815260200160002060010154036003600060058481548110151561142157fe5b9060005260206000200160009054906101000a900473ffffffffffffffffffffffffffffffffffffffff1673ffffffffffffffffffffffffffffffffffffffff1673ffffffffffffffffffffffffffffffffffffffff16815260200190815260200160002060020154036003600060058481548110151561149e57fe5b9060005260206000200160009054906101000a900473ffffffffffffffffffffffffffffffffffffffff1673ffffffffffffffffffffffffffffffffffffffff1673ffffffffffffffffffffffffffffffffffffffff1681526020019081526020016000206002018190555060016003600060058481548110151561151f57fe5b9060005260206000200160009054906101000a900473ffffffffffffffffffffffffffffffffffffffff1673ffffffffffffffffffffffffffffffffffffffff1673ffffffffffffffffffffffffffffffffffffffff168152602001908152602001600020600401600084815260200190815260200160002060006101000a81548160ff0219169083151502179055505b8080600101915050611283565b50611a48565b600160038111156115d057fe5b6004600083815260200190815260200160002060030160009054906101000a900460ff1660038111156115ff57fe5b1415611a475760008090505b600580549050811015611a45576001600281111561162557fe5b60046000848152602001908152602001600020600201600060058481548110151561164c57fe5b9060005260206000200160009054906101000a900473ffffffffffffffffffffffffffffffffffffffff1673ffffffffffffffffffffffffffffffffffffffff1673ffffffffffffffffffffffffffffffffffffffff16815260200190815260200160002060009054906101000a900460ff1660028111156116ca57fe5b148015611775575060011515600360006005848154811015156116e957fe5b9060005260206000200160009054906101000a900473ffffffffffffffffffffffffffffffffffffffff1673ffffffffffffffffffffffffffffffffffffffff1673ffffffffffffffffffffffffffffffffffffffff168152602001908152602001600020600401600084815260200190815260200160002060009054906101000a900460ff16151514155b15611a38576000600254600560ff160290506000811215156118935780600360006005858154811015156117a557fe5b9060005260206000200160009054906101000a900473ffffffffffffffffffffffffffffffffffffffff1673ffffffffffffffffffffffffffffffffffffffff1673ffffffffffffffffffffffffffffffffffffffff16815260200190815260200160002060010154036003600060058581548110151561182257fe5b9060005260206000200160009054906101000a900473ffffffffffffffffffffffffffffffffffffffff1673ffffffffffffffffffffffffffffffffffffffff1673ffffffffffffffffffffffffffffffffffffffff16815260200190815260200160002060010181905550611991565b80600360006005858154811015156118a757fe5b9060005260206000200160009054906101000a900473ffffffffffffffffffffffffffffffffffffffff1673ffffffffffffffffffffffffffffffffffffffff1673ffffffffffffffffffffffffffffffffffffffff16815260200190815260200160002060010154016003600060058581548110151561192457fe5b9060005260206000200160009054906101000a900473ffffffffffffffffffffffffffffffffffffffff1673ffffffffffffffffffffffffffffffffffffffff1673ffffffffffffffffffffffffffffffffffffffff168152602001908152602001600020600101819055505b6001600360006005858154811015156119a657fe5b9060005260206000200160009054906101000a900473ffffffffffffffffffffffffffffffffffffffff1673ffffffffffffffffffffffffffffffffffffffff1673ffffffffffffffffffffffffffffffffffffffff168152602001908152602001600020600401600085815260200190815260200160002060006101000a81548160ff021916908315150217905550505b808060010191505061160b565b505b5b5056fea165627a7a72305820c956c0a5fbdc9d5e8544c69d52d9c68f6fc2b12e9006da69efc17da31899ebed0029",
  "source": "pragma solidity ^0.5.0;\n\n/// @title A smart contract for music curation\n/// @author TheGooner93\n/// @notice Enables voting mechanisms for users in a single music genre\ncontract Curator {\n    /**************  variables **********************/\n    int public genreScore ;\n    uint public totalTracks ;\n    int public averageScore;                        \n    \n    //mapping of a userid to a users struct\n    mapping(address => Users) public musicMapUsers;\n    //mapping for trackhash to song details\n    mapping(bytes32 => Track) public musicMapTracks;\n    \n    address[] public allUsers;\n    bytes32[] public allTracks;\n    /************* structs ***************/\n    struct Track {\n        bytes32 hash;                            //this is a hash of all metadata(trackId) \n        int score;                               //sum total of positive and negative votes for this track\n        mapping(address => Vote) userVotes;      //total users who voted for this track and mapping of userId with Votes struct\n        State state;                             //state of the track\n    }\n    struct Users {\n        address id;                              //public key of a user\n        int vouchCredits;                        //total credits earned by user when vouched for a track\n        int rejectCredits;                       //total credits earned by user when rejected a track\n        mapping (bytes32 => Vote) votes;         //tracks all songs this user has voted on and mapping of track hash with user’s vote\n        mapping (bytes32 => bool) penaltyTracks; //tracks the songs for which the user has paid a penalty due to opposite threshold violation\n        uint dayVoteCount;\n    }\n    \n    /**************  constants ********************/\n    uint8 constant WhitelistThreshold = 10;\n    int16 constant BlacklistThreshold = -100;\n    uint8 constant UserDailyVoteCap = 10;\n    uint8 constant PunishmentMultiplier = 5;\n    \n    /**************** enums *****************/\n    enum Vote {NOVOTE, VOUCH, REJECT}\n    enum State {NONEXISTENT, BLACKLIST, SANDBOX, WHITELIST}\n    \n    /****** functions *********/\n    \n    /// @author TheGooner93\n    /// @notice Vouch or reject the given track based on user vote \n    /// @param trackHashString Hash of the track being voted upon\n    /// @param didVouch Indicates whether tracks was vouched or rejected\n    /// @return true if vouch/reject is succesful, false otherwise\n    function vouchOrReject (string memory trackHashString, bool didVouch) public returns(bool){\n        bytes32 trackHash;\n        assembly{\n             trackHash := mload(add(trackHashString,32))\n        }\n        \n        address userId = msg.sender;\n        \n        //check if user has not already voted for this track\n        bool hasVoted = hasUserVotedForTrack(trackHash, userId);\n        \n        //if the user has not voted already on this track, and their daily vote cap has not yet been reached\n        if(!hasVoted && !_isVoteCapReached(userId)){\n           //update above mappings appropritely after calculating new state of the track in playlist \n           //and appropriate credits for this user and other users who voted for this track\n            if(_isRejected(trackHash) == false){\n                _distributeCredits(trackHash, didVouch, userId);\n                _updateAverageScore();\n                return true;\n            }\n        }\n        return false;\n    }\n    \n    /// @author TheGooner93\n    /// @notice Distributes credits appropriately based on game mechanics \n    /// @param trackHash Hash of the track being voted upon\n    /// @param didVouch Indicates whether tracks was vouched or rejected\n    /// @param userId Address of the user\n    function _distributeCredits(bytes32 trackHash, bool didVouch, address userId) private {\n            \n        //Apply votes\n        if(didVouch){\n            //Distribute credits to previous vouch-ers\n            for(uint i = 0; i<allUsers.length; i++){\n                if(musicMapTracks[trackHash].userVotes[allUsers[i]] == Vote.VOUCH){\n                    musicMapUsers[allUsers[i]].vouchCredits += 1;\n                }\n            }\n            \n            //Apply the type of vote against the track for a particular user, and for a user against a particular track\n            musicMapUsers[userId].votes[trackHash] = Vote.VOUCH;\n            musicMapTracks[trackHash].userVotes[userId] = Vote.VOUCH;\n            \n            //Incrementing the score only in case of an existing track\n            if(_hashCompare(musicMapTracks[trackHash].hash, trackHash) != false){\n                musicMapTracks[trackHash].score += 1;\n            }\n            //Update the genreScore\n            genreScore += 1;\n            \n        }else{\n            //Distribute credits to previous rejecters\n            for(uint i = 0; i<allUsers.length; i++){\n                if(musicMapTracks[trackHash].userVotes[allUsers[i]] == Vote.REJECT){\n                    musicMapUsers[allUsers[i]].rejectCredits += 1;\n                }\n            }\n            \n            //Apply the type of vote against the track for a particular user, and for a user against a particular track\n            musicMapUsers[userId].votes[trackHash] = Vote.REJECT;\n            musicMapTracks[trackHash].userVotes[userId] = Vote.REJECT;\n            \n            //Decrementing the score only in case of an existing track\n            if(_hashCompare(musicMapTracks[trackHash].hash, trackHash) != false){\n                musicMapTracks[trackHash].score -= 1;\n            }\n            \n            //Update the genreScore\n            genreScore -= 1;\n        }\n        \n        //Entering the trackHash, only if it isnt already existent\n        if(_hashCompare(musicMapTracks[trackHash].hash, trackHash) == false){\n            musicMapTracks[trackHash].hash = trackHash;\n            allTracks.push(trackHash);\n            totalTracks += 1;\n             //Entering any new track into SANDBOX registry and it gets initialized with a score of zero\n            musicMapTracks[trackHash].state = State.SANDBOX;\n        }\n        \n        //Entering the user, only if their details is not already existent\n        if(musicMapUsers[userId].id != userId){\n            musicMapUsers[userId].id = userId;\n            allUsers.push(userId);\n        }\n        \n        //Update the day vote count for the user\n        musicMapUsers[userId].dayVoteCount += 1;\n        \n        //Update State of track in case of threshold breach\n        if(musicMapTracks[trackHash].score > int(WhitelistThreshold)){\n            musicMapTracks[trackHash].state = State.WHITELIST;\n            _applyRelevantPenalties(trackHash);\n        }else if(musicMapTracks[trackHash].score < BlacklistThreshold){\n            musicMapTracks[trackHash].state = State.BLACKLIST;\n            _applyRelevantPenalties(trackHash);\n        }else{\n            musicMapTracks[trackHash].state = State.SANDBOX;\n        }\n    }\n    \n    /// @author TheGooner93\n    /// @notice Updates average score of this genre with every user action\n    function _updateAverageScore() private{\n        averageScore = genreScore/int256(totalTracks);\n    }\n    \n    /// @author TheGooner93\n    /// @notice Checks if given track is rejected ie. is in the blacklist\n    /// @param trackHash Hash of the track being voted upon\n    /// @return true if the track has been blacklisted\n    function _isRejected(bytes32 trackHash) public view returns(bool){\n        if(musicMapTracks[trackHash].state == State.BLACKLIST){\n            return true;\n        }\n        return false;\n    }\n    \n    //New functions\n    \n    /// @author TheGooner93\n    /// @notice Checks if user has voted for a particular track\n    /// @param trackHash Hash of the track being voted upon\n    /// @param userId Address of the user\n    /// @return true if the user has already voted for a track\n    function hasUserVotedForTrack(bytes32 trackHash, address userId) private view returns(bool){\n      Users storage matchedUser = musicMapUsers[userId];\n      Vote matchedUserVote = matchedUser.votes[trackHash];\n      if(matchedUserVote == Vote.VOUCH || matchedUserVote == Vote.REJECT){\n          return true;\n       }else{\n          return false;\n       }  \n    }\n    \n    /// @author TheGooner93\n    /// @notice Hash comparison function\n    /// @param string1 First track hash\n    /// @param string2 Second track hash\n    /// @return true if string1 and string2 are the same, returns false if not\n    function _hashCompare(bytes32 string1, bytes32 string2) private pure returns(bool){\n        if(keccak256(abi.encode(string1)) == keccak256(abi.encode(string2))){\n            return true;\n        }else{\n            return false;\n        }\n    }\n    \n    /// @author TheGooner93\n    /// @notice Checks if the maximum vote cap for the day is reached\n    /// @param userId Address of the user\n    /// @return true if the maximum vote cap for the day for the userId is reached\n    function _isVoteCapReached(address userId) private view returns(bool){\n        if(musicMapUsers[userId].dayVoteCount == UserDailyVoteCap){\n            return true;\n        }else{\n            return false;\n        }\n    }\n    \n    /// @author TheGooner93\n    /// @notice Resets all vote counts\n    /// @return true once the counts are reset\n    function resetVoteCount() public returns(bool){\n        for(uint i = 0; i<allUsers.length; i++){\n            if(musicMapUsers[allUsers[i]].dayVoteCount != 0){\n                musicMapUsers[allUsers[i]].dayVoteCount = 0;\n            }\n        }\n        return true;\n    }\n    \n    /// @author TheGooner93\n    /// @notice Applies penalties for users with conflicting votes\n    /// @param trackHash Hash of the track pertaining to penalty applied\n    function _applyRelevantPenalties(bytes32 trackHash) private{\n        if(musicMapTracks[trackHash].state == State.WHITELIST){\n            for(uint i = 0; i<allUsers.length;i++){\n                //if user has voted 'Reject' on this track and if no penalty has been awarded yet for this track\n                if(musicMapTracks[trackHash].userVotes[allUsers[i]] == Vote.REJECT && musicMapUsers[allUsers[i]].penaltyTracks[trackHash] != true){\n                    //Slash challenger score by (TR-WT)\n                    musicMapUsers[allUsers[i]].rejectCredits = musicMapUsers[allUsers[i]].rejectCredits - (musicMapTracks[trackHash].score - int(WhitelistThreshold));\n                    //Add to penaltyTracks\n                    musicMapUsers[allUsers[i]].penaltyTracks[trackHash] = true;\n                }\n            }\n        }else if(musicMapTracks[trackHash].state == State.BLACKLIST){\n            for(uint i = 0; i<allUsers.length;i++){\n                //if user has voted 'Vouch' on this track and if no penalty has been awarded yet for this track\n                if(musicMapTracks[trackHash].userVotes[allUsers[i]] == Vote.VOUCH && musicMapUsers[allUsers[i]].penaltyTracks[trackHash] != true){\n                    //Slash defender score by PunishmentMultiplier * averageScore\n                    int256 slashAmount = int256(PunishmentMultiplier) * averageScore;\n                    if(slashAmount >= 0){\n                       musicMapUsers[allUsers[i]].vouchCredits = musicMapUsers[allUsers[i]].vouchCredits - slashAmount;\n                    }else{\n                       musicMapUsers[allUsers[i]].vouchCredits = musicMapUsers[allUsers[i]].vouchCredits + slashAmount;\n                    }\n                    //Add to penaltyTracks\n                    musicMapUsers[allUsers[i]].penaltyTracks[trackHash] = true;\n                }\n            }\n        }\n    }\n}",
  "sourcePath": "/Users/i322824/Dev/musicmap/contracts/contracts/Curator.sol",
  "compiler": {
    "name": "solc",
    "version": "0.5.0+commit.1d4f565a.Emscripten.clang"
  },
  "schemaVersion": "3.0.0",
  "updatedAt": "2019-01-31T15:56:29.159Z",
  "devdoc": {
    "author": "TheGooner93",
    "methods": {
      "_isRejected(bytes32)": {
        "author": "TheGooner93",
        "params": {
          "trackHash": "Hash of the track being voted upon"
        },
        "return": "true if the track has been blacklisted"
      },
      "resetVoteCount()": {
        "author": "TheGooner93",
        "return": "true once the counts are reset"
      },
      "vouchOrReject(string,bool)": {
        "author": "TheGooner93",
        "params": {
          "didVouch": "Indicates whether tracks was vouched or rejected",
          "trackHashString": "Hash of the track being voted upon"
        },
        "return": "true if vouch/reject is succesful, false otherwise"
      }
    },
    "title": "A smart contract for music curation"
  },
  "userdoc": {
    "methods": {
      "_isRejected(bytes32)": {
        "notice": "Checks if given track is rejected ie. is in the blacklist"
      },
      "resetVoteCount()": {
        "notice": "Resets all vote counts"
      },
      "vouchOrReject(string,bool)": {
        "notice": "Vouch or reject the given track based on user vote "
      }
    },
    "notice": "Enables voting mechanisms for users in a single music genre"
  }
}