{
  "contractName": "Curator",
  "abi": [
    {
      "constant": true,
      "inputs": [],
      "name": "genreScore",
      "outputs": [
        {
          "name": "",
          "type": "int256"
        }
      ],
      "payable": false,
      "stateMutability": "view",
      "type": "function"
    },
    {
      "constant": true,
      "inputs": [],
      "name": "totalTracks",
      "outputs": [
        {
          "name": "",
          "type": "uint256"
        }
      ],
      "payable": false,
      "stateMutability": "view",
      "type": "function"
    },
    {
      "constant": true,
      "inputs": [
        {
          "name": "",
          "type": "uint256"
        }
      ],
      "name": "allTracks",
      "outputs": [
        {
          "name": "",
          "type": "bytes32"
        }
      ],
      "payable": false,
      "stateMutability": "view",
      "type": "function"
    },
    {
      "constant": true,
      "inputs": [
        {
          "name": "",
          "type": "bytes32"
        }
      ],
      "name": "musicMapTracks",
      "outputs": [
        {
          "name": "hash",
          "type": "bytes32"
        },
        {
          "name": "score",
          "type": "int256"
        },
        {
          "name": "state",
          "type": "uint8"
        }
      ],
      "payable": false,
      "stateMutability": "view",
      "type": "function"
    },
    {
      "constant": true,
      "inputs": [
        {
          "name": "",
          "type": "uint256"
        }
      ],
      "name": "allUsers",
      "outputs": [
        {
          "name": "",
          "type": "address"
        }
      ],
      "payable": false,
      "stateMutability": "view",
      "type": "function"
    },
    {
      "constant": true,
      "inputs": [],
      "name": "averageScore",
      "outputs": [
        {
          "name": "",
          "type": "int256"
        }
      ],
      "payable": false,
      "stateMutability": "view",
      "type": "function"
    },
    {
      "constant": true,
      "inputs": [
        {
          "name": "",
          "type": "address"
        }
      ],
      "name": "musicMapUsers",
      "outputs": [
        {
          "name": "id",
          "type": "address"
        },
        {
          "name": "vouchCredits",
          "type": "int256"
        },
        {
          "name": "rejectCredits",
          "type": "int256"
        },
        {
          "name": "dayVoteCount",
          "type": "uint256"
        }
      ],
      "payable": false,
      "stateMutability": "view",
      "type": "function"
    },
    {
      "constant": false,
      "inputs": [
        {
          "name": "trackHashString",
          "type": "string"
        },
        {
          "name": "didVouch",
          "type": "bool"
        }
      ],
      "name": "vouchOrReject",
      "outputs": [],
      "payable": true,
      "stateMutability": "payable",
      "type": "function"
    },
    {
      "constant": false,
      "inputs": [],
      "name": "resetVoteCount",
      "outputs": [],
      "payable": false,
      "stateMutability": "nonpayable",
      "type": "function"
    }
  ],
  "bytecode": "0x6080604052600a6007557fffffffffffffffffffffffffffffffffffffffffffffffffffffffffffffff9c600855600a6009556005600a5534801561004357600080fd5b50611a2c806100536000396000f3fe608060405260043610610099576000357c0100000000000000000000000000000000000000000000000000000000900463ffffffff168063039d60191461009e57806305c83a1a146100b557806340dee0b5146100e05780634e35e5d71461010b5780636158caa0146101d257806388076c6314610221578063a2bdedf41461028c578063cedb97b614610307578063e1c674d714610332575b600080fd5b3480156100aa57600080fd5b506100b36103d8565b005b3480156100c157600080fd5b506100ca610502565b6040518082815260200191505060405180910390f35b3480156100ec57600080fd5b506100f5610508565b6040518082815260200191505060405180910390f35b6101d06004803603604081101561012157600080fd5b810190808035906020019064010000000081111561013e57600080fd5b82018360208201111561015057600080fd5b8035906020019184600183028401116401000000008311171561017257600080fd5b91908080601f016020809104026020016040519081016040528093929190818152602001838380828437600081840152601f19601f82011690508083019250505050505050919291929080351515906020019092919050505061050e565b005b3480156101de57600080fd5b5061020b600480360360208110156101f557600080fd5b8101908080359060200190929190505050610574565b6040518082815260200191505060405180910390f35b34801561022d57600080fd5b5061025a6004803603602081101561024457600080fd5b8101908080359060200190929190505050610597565b6040518084815260200183815260200182600381111561027657fe5b60ff168152602001935050505060405180910390f35b34801561029857600080fd5b506102c5600480360360208110156102af57600080fd5b81019080803590602001909291905050506105ce565b604051808273ffffffffffffffffffffffffffffffffffffffff1673ffffffffffffffffffffffffffffffffffffffff16815260200191505060405180910390f35b34801561031357600080fd5b5061031c61060c565b6040518082815260200191505060405180910390f35b34801561033e57600080fd5b506103816004803603602081101561035557600080fd5b81019080803573ffffffffffffffffffffffffffffffffffffffff169060200190929190505050610612565b604051808573ffffffffffffffffffffffffffffffffffffffff1673ffffffffffffffffffffffffffffffffffffffff16815260200184815260200183815260200182815260200194505050505060405180910390f35b60008090505b6005805490508110156104ff5760006003600060058481548110151561040057fe5b9060005260206000200160009054906101000a900473ffffffffffffffffffffffffffffffffffffffff1673ffffffffffffffffffffffffffffffffffffffff1673ffffffffffffffffffffffffffffffffffffffff168152602001908152602001600020600501541415156104f25760006003600060058481548110151561048557fe5b9060005260206000200160009054906101000a900473ffffffffffffffffffffffffffffffffffffffff1673ffffffffffffffffffffffffffffffffffffffff1673ffffffffffffffffffffffffffffffffffffffff168152602001908152602001600020600501819055505b80806001019150506103de565b50565b60005481565b60015481565b600060208301519050600033905060006105288383610662565b90508015801561053e575061053c82610724565b155b1561056d576000151561055084610784565b1515141561056c576105638385846107db565b61056b6110df565b5b5b5050505050565b60068181548110151561058357fe5b906000526020600020016000915090505481565b60046020528060005260406000206000915090508060000154908060010154908060030160009054906101000a900460ff16905083565b6005818154811015156105dd57fe5b906000526020600020016000915054906101000a900473ffffffffffffffffffffffffffffffffffffffff1681565b60025481565b60036020528060005260406000206000915090508060000160009054906101000a900473ffffffffffffffffffffffffffffffffffffffff16908060010154908060020154908060050154905084565b600080600360008473ffffffffffffffffffffffffffffffffffffffff1673ffffffffffffffffffffffffffffffffffffffff1681526020019081526020016000209050600081600301600086815260200190815260200160002060009054906101000a900460ff169050600160028111156106da57fe5b8160028111156106e657fe5b148061070757506002808111156106f957fe5b81600281111561070557fe5b145b156107175760019250505061071e565b6000925050505b92915050565b6000600a600360008473ffffffffffffffffffffffffffffffffffffffff1673ffffffffffffffffffffffffffffffffffffffff16815260200190815260200160002060050154141561077a576001905061077f565b600090505b919050565b60006001600381111561079357fe5b6004600084815260200190815260200160002060030160009054906101000a900460ff1660038111156107c257fe5b14156107d157600190506107d6565b600090505b919050565b8115610a975760008090505b600580549050811015610944576001600281111561080157fe5b60046000868152602001908152602001600020600201600060058481548110151561082857fe5b9060005260206000200160009054906101000a900473ffffffffffffffffffffffffffffffffffffffff1673ffffffffffffffffffffffffffffffffffffffff1673ffffffffffffffffffffffffffffffffffffffff16815260200190815260200160002060009054906101000a900460ff1660028111156108a657fe5b1415610937576001600360006005848154811015156108c157fe5b9060005260206000200160009054906101000a900473ffffffffffffffffffffffffffffffffffffffff1673ffffffffffffffffffffffffffffffffffffffff1673ffffffffffffffffffffffffffffffffffffffff168152602001908152602001600020600101600082825401925050819055505b80806001019150506107e7565b506001600360008373ffffffffffffffffffffffffffffffffffffffff1673ffffffffffffffffffffffffffffffffffffffff168152602001908152602001600020600301600085815260200190815260200160002060006101000a81548160ff021916908360028111156109b557fe5b021790555060016004600085815260200190815260200160002060020160008373ffffffffffffffffffffffffffffffffffffffff1673ffffffffffffffffffffffffffffffffffffffff16815260200190815260200160002060006101000a81548160ff02191690836002811115610a2a57fe5b021790555060001515610a536004600086815260200190815260200160002060000154856110f7565b1515141515610a8257600160046000858152602001908152602001600020600101600082825401925050819055505b60016000808282540192505081905550610d48565b60008090505b600580549050811015610bf957600280811115610ab657fe5b600460008681526020019081526020016000206002016000600584815481101515610add57fe5b9060005260206000200160009054906101000a900473ffffffffffffffffffffffffffffffffffffffff1673ffffffffffffffffffffffffffffffffffffffff1673ffffffffffffffffffffffffffffffffffffffff16815260200190815260200160002060009054906101000a900460ff166002811115610b5b57fe5b1415610bec57600160036000600584815481101515610b7657fe5b9060005260206000200160009054906101000a900473ffffffffffffffffffffffffffffffffffffffff1673ffffffffffffffffffffffffffffffffffffffff1673ffffffffffffffffffffffffffffffffffffffff168152602001908152602001600020600201600082825401925050819055505b8080600101915050610a9d565b506002600360008373ffffffffffffffffffffffffffffffffffffffff1673ffffffffffffffffffffffffffffffffffffffff168152602001908152602001600020600301600085815260200190815260200160002060006101000a81548160ff02191690836002811115610c6a57fe5b021790555060026004600085815260200190815260200160002060020160008373ffffffffffffffffffffffffffffffffffffffff1673ffffffffffffffffffffffffffffffffffffffff16815260200190815260200160002060006101000a81548160ff02191690836002811115610cdf57fe5b021790555060001515610d086004600086815260200190815260200160002060000154856110f7565b1515141515610d3757600160046000858152602001908152602001600020600101600082825403925050819055505b600160008082825403925050819055505b60001515610d6c6004600086815260200190815260200160002060000154856110f7565b15151415610e045782600460008581526020019081526020016000206000018190555060068390806001815401808255809150509060018203906000526020600020016000909192909190915055506001806000828254019250508190555060026004600085815260200190815260200160002060030160006101000a81548160ff02191690836003811115610dfe57fe5b02179055505b8073ffffffffffffffffffffffffffffffffffffffff16600360008373ffffffffffffffffffffffffffffffffffffffff1673ffffffffffffffffffffffffffffffffffffffff16815260200190815260200160002060000160009054906101000a900473ffffffffffffffffffffffffffffffffffffffff1673ffffffffffffffffffffffffffffffffffffffff16141515610f835780600360008373ffffffffffffffffffffffffffffffffffffffff1673ffffffffffffffffffffffffffffffffffffffff16815260200190815260200160002060000160006101000a81548173ffffffffffffffffffffffffffffffffffffffff021916908373ffffffffffffffffffffffffffffffffffffffff16021790555060058190806001815401808255809150509060018203906000526020600020016000909192909190916101000a81548173ffffffffffffffffffffffffffffffffffffffff021916908373ffffffffffffffffffffffffffffffffffffffff160217905550505b6001600360008373ffffffffffffffffffffffffffffffffffffffff1673ffffffffffffffffffffffffffffffffffffffff168152602001908152602001600020600501600082825401925050819055506007546004600085815260200190815260200160002060010154131561103a5760036004600085815260200190815260200160002060030160006101000a81548160ff0219169083600381111561102757fe5b0217905550611035836111f5565b6110da565b600854600460008581526020019081526020016000206001015412156110a05760016004600085815260200190815260200160002060030160006101000a81548160ff0219169083600381111561108d57fe5b021790555061109b836111f5565b6110d9565b60026004600085815260200190815260200160002060030160006101000a81548160ff021916908360038111156110d357fe5b02179055505b5b505050565b6001546000548115156110ee57fe5b05600281905550565b6000602060ff16602060ff1614151561111357600090506111ef565b60008090505b602060ff168110156111e957828160208110151561113357fe5b1a7f0100000000000000000000000000000000000000000000000000000000000000027effffffffffffffffffffffffffffffffffffffffffffffffffffffffffffff1916848260208110151561118657fe5b1a7f0100000000000000000000000000000000000000000000000000000000000000027effffffffffffffffffffffffffffffffffffffffffffffffffffffffffffff19161415156111dc5760009150506111ef565b8080600101915050611119565b50600190505b92915050565b60038081111561120157fe5b6004600083815260200190815260200160002060030160009054906101000a900460ff16600381111561123057fe5b141561157a5760008090505b6005805490508110156115745760028081111561125557fe5b60046000848152602001908152602001600020600201600060058481548110151561127c57fe5b9060005260206000200160009054906101000a900473ffffffffffffffffffffffffffffffffffffffff1673ffffffffffffffffffffffffffffffffffffffff1673ffffffffffffffffffffffffffffffffffffffff16815260200190815260200160002060009054906101000a900460ff1660028111156112fa57fe5b1480156113a55750600115156003600060058481548110151561131957fe5b9060005260206000200160009054906101000a900473ffffffffffffffffffffffffffffffffffffffff1673ffffffffffffffffffffffffffffffffffffffff1673ffffffffffffffffffffffffffffffffffffffff168152602001908152602001600020600401600084815260200190815260200160002060009054906101000a900460ff16151514155b1561156757600754600460008481526020019081526020016000206001015403600360006005848154811015156113d857fe5b9060005260206000200160009054906101000a900473ffffffffffffffffffffffffffffffffffffffff1673ffffffffffffffffffffffffffffffffffffffff1673ffffffffffffffffffffffffffffffffffffffff16815260200190815260200160002060020154036003600060058481548110151561145557fe5b9060005260206000200160009054906101000a900473ffffffffffffffffffffffffffffffffffffffff1673ffffffffffffffffffffffffffffffffffffffff1673ffffffffffffffffffffffffffffffffffffffff168152602001908152602001600020600201819055506001600360006005848154811015156114d657fe5b9060005260206000200160009054906101000a900473ffffffffffffffffffffffffffffffffffffffff1673ffffffffffffffffffffffffffffffffffffffff1673ffffffffffffffffffffffffffffffffffffffff168152602001908152602001600020600401600084815260200190815260200160002060006101000a81548160ff0219169083151502179055505b808060010191505061123c565b506119fd565b6001600381111561158757fe5b6004600083815260200190815260200160002060030160009054906101000a900460ff1660038111156115b657fe5b14156119fc5760008090505b6005805490508110156119fa57600160028111156115dc57fe5b60046000848152602001908152602001600020600201600060058481548110151561160357fe5b9060005260206000200160009054906101000a900473ffffffffffffffffffffffffffffffffffffffff1673ffffffffffffffffffffffffffffffffffffffff1673ffffffffffffffffffffffffffffffffffffffff16815260200190815260200160002060009054906101000a900460ff16600281111561168157fe5b14801561172c575060011515600360006005848154811015156116a057fe5b9060005260206000200160009054906101000a900473ffffffffffffffffffffffffffffffffffffffff1673ffffffffffffffffffffffffffffffffffffffff1673ffffffffffffffffffffffffffffffffffffffff168152602001908152602001600020600401600084815260200190815260200160002060009054906101000a900460ff16151514155b156119ed576000600254600a5402905060008112151561184857806003600060058581548110151561175a57fe5b9060005260206000200160009054906101000a900473ffffffffffffffffffffffffffffffffffffffff1673ffffffffffffffffffffffffffffffffffffffff1673ffffffffffffffffffffffffffffffffffffffff1681526020019081526020016000206001015403600360006005858154811015156117d757fe5b9060005260206000200160009054906101000a900473ffffffffffffffffffffffffffffffffffffffff1673ffffffffffffffffffffffffffffffffffffffff1673ffffffffffffffffffffffffffffffffffffffff16815260200190815260200160002060010181905550611946565b806003600060058581548110151561185c57fe5b9060005260206000200160009054906101000a900473ffffffffffffffffffffffffffffffffffffffff1673ffffffffffffffffffffffffffffffffffffffff1673ffffffffffffffffffffffffffffffffffffffff1681526020019081526020016000206001015401600360006005858154811015156118d957fe5b9060005260206000200160009054906101000a900473ffffffffffffffffffffffffffffffffffffffff1673ffffffffffffffffffffffffffffffffffffffff1673ffffffffffffffffffffffffffffffffffffffff168152602001908152602001600020600101819055505b60016003600060058581548110151561195b57fe5b9060005260206000200160009054906101000a900473ffffffffffffffffffffffffffffffffffffffff1673ffffffffffffffffffffffffffffffffffffffff1673ffffffffffffffffffffffffffffffffffffffff168152602001908152602001600020600401600085815260200190815260200160002060006101000a81548160ff021916908315150217905550505b80806001019150506115c2565b505b5b5056fea165627a7a72305820813bd12d364f0f2ed7c12e658aa75ecfcd9c21901e4cf9b7b4b40d3bdb0054d70029",
  "source": "pragma solidity ^0.5.0;\n\ncontract Curator {\n    /**************  variables **********************/\n    int public genreScore ;\n    uint public totalTracks ;\n    int public averageScore;                                  //this value gets updated with new entries of tracks or with every user action\n\n    //mapping of a userid to a users struct\n    mapping(address => users) public musicMapUsers;\n    //mapping for trackhash to song details\n    mapping(bytes32 => tracks) public musicMapTracks;\n    \n    address[] public allUsers;\n    bytes32[] public allTracks;\n    /************* structs ***************/\n    struct tracks {\n        bytes32 hash;                                //this is a hash of all metadata (stored offchain in mongodb for that track)(also acts as track id)  \n        int score;                                  //sum total of positive and negative votes for this track\n        mapping(address => Vote) userVotes;          //total users who voted for this track and mapping of userId with Votes struct\n        State state;                                //state of the track {SANDBOX, WHITELIST}\n    }\n    struct users {\n        address id;                              //public key of a user\n        int vouchCredits;                      //total credits earned by user when vouched for a track\n        int rejectCredits;                     //total credits earned by user when rejected a track\n        mapping (bytes32 => Vote) votes;         //tracks all songs this user has voted on and mapping of track hash with user’s vote {VOUCH, REJECT}\n        mapping (bytes32 => bool) penaltyTracks; //tracks the songs for which the user has paid a penalty due to opposite threshold violation\n        uint dayVoteCount;\n    }\n    \n    /**************  constants ********************/\n    uint WhitelistThreshold = 10;\n    int BlacklistThreshold = -100;\n    uint UserDailyVoteCap = 10;\n    uint PunishmentMultiplier = 5;\n    \n    /**************** enums *****************/\n    enum Vote {NOVOTE, VOUCH, REJECT}\n    enum State {NONEXISTENT, BLACKLIST, SANDBOX, WHITELIST}\n    \n    /****** functions *********/\n    //this function vouches or rejects the given track based on user vote \n    function vouchOrReject (string memory trackHashString, bool didVouch) public payable{\n        bytes32 trackHash;\n        assembly{\n             trackHash := mload(add(trackHashString,32))\n        }\n        address userId = msg.sender;\n        \n        //check if user has not already voted for this track\n        bool hasVoted = hasUserVotedForTrack(trackHash, userId);\n        \n        //if the user has not voted already on this track, and their daily vote cap has not yet been reached\n        if(!hasVoted && !_isVoteCapReached(userId)){\n           //update above mappings appropritely after calculating new state of the track in playlist \n           //and appropriate credits for this user and other users who voted for this track\n            \n            if(_isRejected(trackHash) == false){\n                _distributeCredits(trackHash, didVouch, userId);\n                _updateAverageScore();\n            }\n            \n        }\n    }\n    \n    //this function distributes credits appropriately based on game mechanics \n    function _distributeCredits(bytes32 trackHash, bool didVouch, address userId) private {\n            \n        //Apply votes\n        if(didVouch){\n            //Distribute credits to previous vouch-ers\n            for(uint i=0; i<allUsers.length; i++){\n                if(musicMapTracks[trackHash].userVotes[allUsers[i]] == Vote.VOUCH){\n                    musicMapUsers[allUsers[i]].vouchCredits +=1;\n                }\n            }\n            \n            //Apply the type of vote against the track for a particular user, and for a user against a particular track\n            musicMapUsers[userId].votes[trackHash] = Vote.VOUCH;\n            musicMapTracks[trackHash].userVotes[userId] = Vote.VOUCH;\n            \n            //Incrementing the score only in case of an existing track\n            if(_stringCompare(musicMapTracks[trackHash].hash, trackHash) != false){\n                musicMapTracks[trackHash].score += 1;\n            }\n            //Update the genreScore\n            genreScore += 1;\n            \n        }else{\n            //Distribute credits to previous rejecters\n            for(uint i=0; i<allUsers.length; i++){\n                if(musicMapTracks[trackHash].userVotes[allUsers[i]] == Vote.REJECT){\n                    musicMapUsers[allUsers[i]].rejectCredits += 1;\n                }\n            }\n            \n            //Apply the type of vote against the track for a particular user, and for a user against a particular track\n            musicMapUsers[userId].votes[trackHash] = Vote.REJECT;\n            musicMapTracks[trackHash].userVotes[userId] = Vote.REJECT;\n            \n            //Decrementing the score only in case of an existing track\n            if(_stringCompare(musicMapTracks[trackHash].hash, trackHash) != false){\n                musicMapTracks[trackHash].score -= 1;\n            }\n            \n            //Update the genreScore\n            genreScore -= 1;\n        }\n        \n        // might need to move this code elsewhere-------->\n        //Entering the trackHash, only if it isnt already existent\n        if(_stringCompare(musicMapTracks[trackHash].hash, trackHash) == false){\n            musicMapTracks[trackHash].hash = trackHash;\n            allTracks.push(trackHash);\n            totalTracks +=1;\n             //Entering any new track into SANDBOX registry and it gets initialized with a score of zero\n            musicMapTracks[trackHash].state = State.SANDBOX;\n        }\n        \n        //Entering the user, only if their details is not already existent\n        if(musicMapUsers[userId].id != userId){\n            musicMapUsers[userId].id = userId;\n            allUsers.push(userId);\n        }\n        //<-------- might need to move this code elsewhere\n        \n        //Update the day vote count for the user\n        musicMapUsers[userId].dayVoteCount += 1;\n        \n        //Update State of track in case of threshold breach\n        if(musicMapTracks[trackHash].score > int(WhitelistThreshold)){\n            musicMapTracks[trackHash].state = State.WHITELIST;\n            _applyRelevantPenalties(trackHash);\n        }else if(musicMapTracks[trackHash].score < BlacklistThreshold){\n            musicMapTracks[trackHash].state = State.BLACKLIST;\n            _applyRelevantPenalties(trackHash);\n        }else{\n            musicMapTracks[trackHash].state = State.SANDBOX;\n        }\n    }\n    \n    //this function updates average score of this genre with every user action\n    function _updateAverageScore() private{\n        averageScore = genreScore/int256(totalTracks);\n    }\n    \n    //this function checks if given track is rejected ie. is in the blacklist\n    function _isRejected(bytes32 trackHash) private view returns(bool){\n        if(musicMapTracks[trackHash].state == State.BLACKLIST){\n            return true;\n        }\n        return false;\n    }\n    \n    //New functions\n    \n    //Checks if user has voted for a particular track\n    function hasUserVotedForTrack(bytes32 trackHash, address userId) private view returns(bool){\n      users storage matchedUser = musicMapUsers[userId];\n      Vote matchedUserVote = matchedUser.votes[trackHash];\n      if(matchedUserVote == Vote.VOUCH || matchedUserVote == Vote.REJECT){\n          return true;\n       }else{\n          return false;\n       }  \n    }\n    \n    //Returns true if string1 and string2 are the same, returns false if not\n    function _stringCompare(bytes32 string1, bytes32 string2) private pure returns(bool){\n        \n        if(string1.length != string2.length){\n            return false;\n        }\n        for(uint i = 0; i<string1.length; i++){\n            if(string1[i] != string2[i]){\n                return false;\n            }\n        }\n        return true;\n    }\n    \n    //Checks if the maximum vote cap for the day is reached\n    function _isVoteCapReached(address userId) private view returns(bool){\n        if(musicMapUsers[userId].dayVoteCount == 10){\n            return true;\n        }else{\n            return false;\n        }\n    }\n    \n    //resets the vote count for every user\n    function resetVoteCount() public{\n        for(uint i=0; i<allUsers.length; i++){\n            if(musicMapUsers[allUsers[i]].dayVoteCount != 0){\n                musicMapUsers[allUsers[i]].dayVoteCount = 0;\n            }\n        }\n    }\n    \n    //applies penalties for users with conflicting votes\n    function _applyRelevantPenalties(bytes32 trackHash) private{\n        if(musicMapTracks[trackHash].state == State.WHITELIST){\n            for(uint i=0; i<allUsers.length;i++){\n                //if user has voted 'Reject' on this track and if no penalty has been awarded yet for this track\n                if(musicMapTracks[trackHash].userVotes[allUsers[i]] == Vote.REJECT && musicMapUsers[allUsers[i]].penaltyTracks[trackHash] != true){\n                    //Slash challenger score by (TR-WT)\n                    musicMapUsers[allUsers[i]].rejectCredits = musicMapUsers[allUsers[i]].rejectCredits - (musicMapTracks[trackHash].score - int(WhitelistThreshold));\n                    //Add to penaltyTracks\n                    musicMapUsers[allUsers[i]].penaltyTracks[trackHash] = true;\n                }\n            }\n        }else if(musicMapTracks[trackHash].state == State.BLACKLIST){\n            for(uint i=0; i<allUsers.length;i++){\n                //if user has voted 'Vouch' on this track and if no penalty has been awarded yet for this track\n                if(musicMapTracks[trackHash].userVotes[allUsers[i]] == Vote.VOUCH && musicMapUsers[allUsers[i]].penaltyTracks[trackHash] != true){\n                    //Slash defender score by PunishmentMultiplier * averageScore\n                    int256 slashAmount = int256(PunishmentMultiplier) * averageScore;\n                    if(slashAmount >= 0){\n                       musicMapUsers[allUsers[i]].vouchCredits = musicMapUsers[allUsers[i]].vouchCredits - slashAmount;\n                    }else{\n                       musicMapUsers[allUsers[i]].vouchCredits = musicMapUsers[allUsers[i]].vouchCredits + slashAmount;\n                    }\n                    //Add to penaltyTracks\n                    musicMapUsers[allUsers[i]].penaltyTracks[trackHash] = true;\n                }\n            }\n        }\n    }\n}",
  "sourcePath": "/Users/i322824/Dev/musicmap/contracts/Curator.sol",
  "compiler": {
    "name": "solc",
    "version": "0.5.0+commit.1d4f565a.Emscripten.clang"
  },
  "schemaVersion": "3.0.0",
  "updatedAt": "2019-01-16T14:58:19.239Z",
  "devdoc": {
    "methods": {}
  },
  "userdoc": {
    "methods": {
      "vouchOrReject(string,bool)": {
        "notice": "**** functions ********"
      }
    }
  }
}